{
  "_format": "hh-sol-artifact-1",
  "contractName": "BuyMeACoffee",
  "sourceName": "contracts/BuyMeACoffee.sol",
  "abi": [
    {
      "inputs": [],
      "stateMutability": "nonpayable",
      "type": "constructor"
    },
    {
      "anonymous": false,
      "inputs": [
        {
          "indexed": true,
          "internalType": "address",
          "name": "sender",
          "type": "address"
        },
        {
          "indexed": false,
          "internalType": "string",
          "name": "name",
          "type": "string"
        },
        {
          "indexed": false,
          "internalType": "string",
          "name": "message",
          "type": "string"
        },
        {
          "indexed": false,
          "internalType": "uint256",
          "name": "timestamp",
          "type": "uint256"
        }
      ],
      "name": "NewCoffee",
      "type": "event"
    },
    {
      "inputs": [
        {
          "internalType": "string",
          "name": "_name",
          "type": "string"
        },
        {
          "internalType": "string",
          "name": "_message",
          "type": "string"
        }
      ],
      "name": "buyCoffee",
      "outputs": [],
      "stateMutability": "payable",
      "type": "function"
    },
    {
      "inputs": [
        {
          "internalType": "uint256",
          "name": "",
          "type": "uint256"
        }
      ],
      "name": "coffees",
      "outputs": [
        {
          "internalType": "address",
          "name": "sender",
          "type": "address"
        },
        {
          "internalType": "string",
          "name": "name",
          "type": "string"
        },
        {
          "internalType": "string",
          "name": "message",
          "type": "string"
        },
        {
          "internalType": "uint256",
          "name": "timestamp",
          "type": "uint256"
        }
      ],
      "stateMutability": "view",
      "type": "function"
    },
    {
      "inputs": [],
      "name": "getCoffees",
      "outputs": [
        {
          "components": [
            {
              "internalType": "address",
              "name": "sender",
              "type": "address"
            },
            {
              "internalType": "string",
              "name": "name",
              "type": "string"
            },
            {
              "internalType": "string",
              "name": "message",
              "type": "string"
            },
            {
              "internalType": "uint256",
              "name": "timestamp",
              "type": "uint256"
            }
          ],
          "internalType": "struct BuyMeACoffee.Coffee[]",
          "name": "",
          "type": "tuple[]"
        }
      ],
      "stateMutability": "view",
      "type": "function"
    },
    {
      "inputs": [],
      "name": "owner",
      "outputs": [
        {
          "internalType": "address payable",
          "name": "",
          "type": "address"
        }
      ],
      "stateMutability": "view",
      "type": "function"
    },
    {
      "inputs": [],
      "name": "withdrawTips",
      "outputs": [],
      "stateMutability": "nonpayable",
      "type": "function"
    }
  ],
  "bytecode": "0x6080604052348015600f57600080fd5b5033600160006101000a81548173ffffffffffffffffffffffffffffffffffffffff021916908373ffffffffffffffffffffffffffffffffffffffff160217905550611080806100606000396000f3fe60806040526004361061004a5760003560e01c8063204206e11461004f5780633aaa74b21461006b5780635b0c306d146100825780638da5cb5b146100ad578063aa586704146100d8575b600080fd5b61006960048036038101906100649190610860565b610118565b005b34801561007757600080fd5b50610080610292565b005b34801561008e57600080fd5b5061009761038d565b6040516100a49190610add565b60405180910390f35b3480156100b957600080fd5b506100c2610570565b6040516100cf9190610b20565b60405180910390f35b3480156100e457600080fd5b506100ff60048036038101906100fa9190610b67565b610596565b60405161010f9493929190610bfc565b60405180910390f35b6000341161015b576040517f08c379a000000000000000000000000000000000000000000000000000000000815260040161015290610c9b565b60405180910390fd5b600060405180608001604052803373ffffffffffffffffffffffffffffffffffffffff16815260200184815260200183815260200142815250908060018154018082558091505060019003906000526020600020906004020160009091909190915060008201518160000160006101000a81548173ffffffffffffffffffffffffffffffffffffffff021916908373ffffffffffffffffffffffffffffffffffffffff16021790555060208201518160010190816102199190610ec7565b50604082015181600201908161022f9190610ec7565b506060820151816003015550503373ffffffffffffffffffffffffffffffffffffffff167facaf0a2f282f13a941c6f4f59a57886dbe6ed32ab15976fa2e7f5a04170fdaaf83834260405161028693929190610f99565b60405180910390a25050565b600160009054906101000a900473ffffffffffffffffffffffffffffffffffffffff1673ffffffffffffffffffffffffffffffffffffffff163373ffffffffffffffffffffffffffffffffffffffff1614610322576040517f08c379a00000000000000000000000000000000000000000000000000000000081526004016103199061102a565b60405180910390fd5b600160009054906101000a900473ffffffffffffffffffffffffffffffffffffffff1673ffffffffffffffffffffffffffffffffffffffff166108fc479081150290604051600060405180830381858888f1935050505015801561038a573d6000803e3d6000fd5b50565b60606000805480602002602001604051908101604052809291908181526020016000905b8282101561056757838290600052602060002090600402016040518060800160405290816000820160009054906101000a900473ffffffffffffffffffffffffffffffffffffffff1673ffffffffffffffffffffffffffffffffffffffff1673ffffffffffffffffffffffffffffffffffffffff16815260200160018201805461043a90610cea565b80601f016020809104026020016040519081016040528092919081815260200182805461046690610cea565b80156104b35780601f10610488576101008083540402835291602001916104b3565b820191906000526020600020905b81548152906001019060200180831161049657829003601f168201915b505050505081526020016002820180546104cc90610cea565b80601f01602080910402602001604051908101604052809291908181526020018280546104f890610cea565b80156105455780601f1061051a57610100808354040283529160200191610545565b820191906000526020600020905b81548152906001019060200180831161052857829003601f168201915b50505050508152602001600382015481525050815260200190600101906103b1565b50505050905090565b600160009054906101000a900473ffffffffffffffffffffffffffffffffffffffff1681565b600081815481106105a657600080fd5b90600052602060002090600402016000915090508060000160009054906101000a900473ffffffffffffffffffffffffffffffffffffffff16908060010180546105ef90610cea565b80601f016020809104026020016040519081016040528092919081815260200182805461061b90610cea565b80156106685780601f1061063d57610100808354040283529160200191610668565b820191906000526020600020905b81548152906001019060200180831161064b57829003601f168201915b50505050509080600201805461067d90610cea565b80601f01602080910402602001604051908101604052809291908181526020018280546106a990610cea565b80156106f65780601f106106cb576101008083540402835291602001916106f6565b820191906000526020600020905b8154815290600101906020018083116106d957829003601f168201915b5050505050908060030154905084565b6000604051905090565b600080fd5b600080fd5b600080fd5b600080fd5b6000601f19601f8301169050919050565b7f4e487b7100000000000000000000000000000000000000000000000000000000600052604160045260246000fd5b61076d82610724565b810181811067ffffffffffffffff8211171561078c5761078b610735565b5b80604052505050565b600061079f610706565b90506107ab8282610764565b919050565b600067ffffffffffffffff8211156107cb576107ca610735565b5b6107d482610724565b9050602081019050919050565b82818337600083830152505050565b60006108036107fe846107b0565b610795565b90508281526020810184848401111561081f5761081e61071f565b5b61082a8482856107e1565b509392505050565b600082601f8301126108475761084661071a565b5b81356108578482602086016107f0565b91505092915050565b6000806040838503121561087757610876610710565b5b600083013567ffffffffffffffff81111561089557610894610715565b5b6108a185828601610832565b925050602083013567ffffffffffffffff8111156108c2576108c1610715565b5b6108ce85828601610832565b9150509250929050565b600081519050919050565b600082825260208201905092915050565b6000819050602082019050919050565b600073ffffffffffffffffffffffffffffffffffffffff82169050919050565b600061092f82610904565b9050919050565b61093f81610924565b82525050565b600081519050919050565b600082825260208201905092915050565b60005b8381101561097f578082015181840152602081019050610964565b60008484015250505050565b600061099682610945565b6109a08185610950565b93506109b0818560208601610961565b6109b981610724565b840191505092915050565b6000819050919050565b6109d7816109c4565b82525050565b60006080830160008301516109f56000860182610936565b5060208301518482036020860152610a0d828261098b565b91505060408301518482036040860152610a27828261098b565b9150506060830151610a3c60608601826109ce565b508091505092915050565b6000610a5383836109dd565b905092915050565b6000602082019050919050565b6000610a73826108d8565b610a7d81856108e3565b935083602082028501610a8f856108f4565b8060005b85811015610acb5784840389528151610aac8582610a47565b9450610ab783610a5b565b925060208a01995050600181019050610a93565b50829750879550505050505092915050565b60006020820190508181036000830152610af78184610a68565b905092915050565b6000610b0a82610904565b9050919050565b610b1a81610aff565b82525050565b6000602082019050610b356000830184610b11565b92915050565b610b44816109c4565b8114610b4f57600080fd5b50565b600081359050610b6181610b3b565b92915050565b600060208284031215610b7d57610b7c610710565b5b6000610b8b84828501610b52565b91505092915050565b610b9d81610924565b82525050565b600082825260208201905092915050565b6000610bbf82610945565b610bc98185610ba3565b9350610bd9818560208601610961565b610be281610724565b840191505092915050565b610bf6816109c4565b82525050565b6000608082019050610c116000830187610b94565b8181036020830152610c238186610bb4565b90508181036040830152610c378185610bb4565b9050610c466060830184610bed565b95945050505050565b7f43616e6e6f742062757920636f6666656520666f722066726565000000000000600082015250565b6000610c85601a83610ba3565b9150610c9082610c4f565b602082019050919050565b60006020820190508181036000830152610cb481610c78565b9050919050565b7f4e487b7100000000000000000000000000000000000000000000000000000000600052602260045260246000fd5b60006002820490506001821680610d0257607f821691505b602082108103610d1557610d14610cbb565b5b50919050565b60008190508160005260206000209050919050565b60006020601f8301049050919050565b600082821b905092915050565b600060088302610d7d7fffffffffffffffffffffffffffffffffffffffffffffffffffffffffffffffff82610d40565b610d878683610d40565b95508019841693508086168417925050509392505050565b6000819050919050565b6000610dc4610dbf610dba846109c4565b610d9f565b6109c4565b9050919050565b6000819050919050565b610dde83610da9565b610df2610dea82610dcb565b848454610d4d565b825550505050565b600090565b610e07610dfa565b610e12818484610dd5565b505050565b5b81811015610e3657610e2b600082610dff565b600181019050610e18565b5050565b601f821115610e7b57610e4c81610d1b565b610e5584610d30565b81016020851015610e64578190505b610e78610e7085610d30565b830182610e17565b50505b505050565b600082821c905092915050565b6000610e9e60001984600802610e80565b1980831691505092915050565b6000610eb78383610e8d565b9150826002028217905092915050565b610ed082610945565b67ffffffffffffffff811115610ee957610ee8610735565b5b610ef38254610cea565b610efe828285610e3a565b600060209050601f831160018114610f315760008415610f1f578287015190505b610f298582610eab565b865550610f91565b601f198416610f3f86610d1b565b60005b82811015610f6757848901518255600182019150602085019450602081019050610f42565b86831015610f845784890151610f80601f891682610e8d565b8355505b6001600288020188555050505b505050505050565b60006060820190508181036000830152610fb38186610bb4565b90508181036020830152610fc78185610bb4565b9050610fd66040830184610bed565b949350505050565b7f4f6e6c79206f776e65722063616e207769746864726177000000000000000000600082015250565b6000611014601783610ba3565b915061101f82610fde565b602082019050919050565b6000602082019050818103600083015261104381611007565b905091905056fea26469706673582212207d3baa1818da8b41ba705fc055a72a3cadbc23a3a8168a397903713d7723a43164736f6c634300081c0033",
  "linkReferences": {},
  "deployedLinkReferences": {}
}